:020000041000EA
:10000000002008205D0100101B0100101D010010E0
:100010001101001011010010110100101101001058
:100020001901001019010010190100101F01001022
:10003000110100101901001021010010230100100E
:100040001101001011010010110100101101001028
:100050001101001011010010110100101101001018
:100060001101001011010010110100101101001008
:1000700011010010110100101101001011010010F8
:1000800011010010110100101101001011010010E8
:1000900011010010110100101101001011010010D8
:1000A00011010010110100101101001011010010C8
:1000B00011010010110100101101001011010010B8
:1000C00011010010110100101101001011010010A8
:1000D0001101001011010010110100101101001098
:1000E0001101001011010010110100101101001088
:1000F0001101001011010010110100101101001078
:100100001101001011010010110100101101001067
:10011000EFF30580103800BE00BE00BE00BE00BE7A
:1001200000BE00BEF2EB8871E04B0010004C0010E6
:10013000A001001090A31AE7D3DEFFFF42012110B7
:10014000FF0100005C580000793512AB4FF0000051
:100150001E49086006C881F3088810474FF05040D8
:10016000006810B14FF00000F2E70DA40ECC00299A
:1001700002D000F012F8F9E71549164A002000E015
:1001800001C19142FCD11449884714498847144958
:10019000884700BEFDE701C901C29A42FBD3704700
:1001A000004C001010010020A40E002094590010F3
:1001B00000000820000008209459001000100820BA
:1001C00000100820000000007047000008ED00E06B
:1001D000A40E0020781C0020611B0010810200107A
:1001E000591B0010F8B500BF0348044B834202D0EE
:1001F000034B03B118477047A40E0020A40E002043
:1002000000000000064B0749C91A891048BF013198
:10021000491003D0044B0BB101481847704700BF89
:10022000A40E0020A40E00200000000010B5064C13
:10023000237843B9FFF7D8FF044B13B10448AFF359
:1002400000800123237010BDF81000200000000082
:100250005C48001008B5044B1BB104490448AFF3D7
:100260000080BDE80840CDE700000000FC10002041
:100270005C480010014801F0B3BD00BF5C480010AD
:1002800008B501F069FD4FF4FA6001F017F90F208D
:1002900000F05CF90F244FF0000343EC44400022CF
:1002A0000121204600F0E8F8204601220421034BFA
:1002B00000F0F6F8024801F093FDFEE77502001029
:1002C000644800104FF050402DE9F84F6549D0F8D0
:1002D00000A0654A654B51F82A70BAF1000F0CBFB7
:1002E000904698464FB30026DFF884B1DFF884913A
:1002F000F3080C3358F8234035460836CCB114F0D7
:100300000F0110D05BF82A2005F00703EA40E80847
:100310009B00D20701FA03F300F18C0C03D42846AA
:1003200049F82C30B847240905F1010501D0B54240
:10033000E5D3202EDCD1BDE8F88F4D48F90801F156
:100340000C0358F823303A460837002B71D013F0CD
:100350000F0508D050F82A40D440E40703D4454C98
:100360008C3144F82150190963D011F00F010BD0E2
:1003700050F82A40551CEC40E60705D4EC083D4DEA
:1003800009018C3445F82410190A52D011F00F01DC
:100390000BD050F82A40951CEC40E40705D4EC083B
:1003A000344D09028C3445F82410190B41D011F05A
:1003B0000F0105D050F82A40D51CEC40E6073CD58B
:1003C000190C36D011F00F0106D0294C54F82A50E0
:1003D000141DE540ED0737D5190D2AD011F00F0196
:1003E00006D0234C54F82A50541DE540EE0732D570
:1003F000190E1ED011F00F010CD01D4C54F82A50CC
:10040000941DE540ED0705D41A4DE40809068C3427
:1004100045F824101B0F02F107020AD050F82A10E9
:10042000D140C90705D41349D2081B078C3241F8C3
:100430002230202F82D1BDE8F88FEC080D4D090342
:100440008C3445F82410BBE70A4DE40809048C34C9
:1004500045F82410C0E7074DE40809058C3445F839
:100460002410C5E79817002048820240908202407D
:10047000401C00200080024010B4084CC90041EA32
:10048000820154F8202004EB8003514003F580538F
:1004900001F00C015DF8044B1960704704800340C3
:1004A0002DE9F0434FF050491646DFF89C80D9F80B
:1004B00000201F4658F8223004460D4683B053B33F
:1004C000002F34D04FF0504348F822701A681B496F
:1004D0001B4B002A18BF0B46E20804F00704A400D7
:1004E00005FA04F4A1F5247102F18C0041F82040D2
:1004F00003EB82034EB10121152003F500531C606C
:1005000003B0BDE8F04300F027B903F540531C6089
:1005100003B0BDE8F083002FD9D048F82270152031
:100520001A46084900F08AF9D9F80020CFE71520CB
:100530000449019200F076FA019AC3E790820240E2
:1005400048820240C50200109817002030B44FF0D6
:10055000000343EC440043EC400005254FF4807455
:100560000B4BC20053F8201003EB800081F04001D8
:1005700002F1804303F5203301F0C00200F5805101
:1005800000F540500A605D60046030BC704700BFF9
:10059000048003400FB400B583B0049C074801F009
:1005A0001FFC3CB105A92046019101F0BBFA0448AB
:1005B00001F016FC012001F0CDFA00BF70480010D8
:1005C0008048001070B58646EFF3108572B6124C65
:1005D000D4E8CF6F0120002EFAD1C4E8460F002ED8
:1005E000F6D1BFF35F8F4FF0010CC80801F007038D
:1005F0000CFA03F31EF800C01CEA030608D14CEA0B
:10060000030C0EF800C0C4E88F6F85F3108870BD2E
:100610001046FFF7BFFF00BF8F130020F8B5EFF3C0
:10062000108572B6234CD4E8CF7F0126002FFAD173
:10063000C4E8476F002FF6D1BFF35F8F9A4227D8E7
:100640000126D70810F807E002F0070C06FA0CFCA8
:100650001EEA0C0F00EBD2070DD125E04FEAD20EB7
:1006600010F80EE002F0070C06FA0CFC1EEA0C0F64
:1006700000EBD20718D001329342EFD24FF0FF3097
:100680000023C4E88F3F85F31088984207DBF8BD4C
:100690000023C4E88F3F85F310884FF0FF30002916
:1006A000F5D00698FFF776FF4EEA0C0E104687F855
:1006B00000E0E5E78F130020044A1078431CDBB20A
:1006C000182B28BF10231370704700BF000E0020A6
:1006D00010B5054C82B001461F2318220094034830
:1006E000FFF79CFF02B010BD84480010A81700203F
:1006F0004FF0E022936843F000539360704700BFCF
:100700000021044B03F12002C3E88F1F0133934201
:10071000FAD17047841300204FF0E0234FF080326D
:10072000C3F80024C3F80424C3F80824C3F80C2435
:10073000C3F81024C3F81424C3F81824C3F81C24E5
:10074000C3F82024C3F82424C3F82824C3F82C2495
:10075000C3F8302462B67047012300F01F029340B3
:10076000400941B1800000F1604000F56140C0F8EF
:10077000803103607047024A203042F820307047D1
:1007800000E100E00123064A410952F8212000F06F
:100790001F008340134214BF01200020704700BF98
:1007A00000E100E001224309034900F01F008240FC
:1007B000403341F82320704700E100E0054A103043
:1007C0009268054B52F82000C01A2F288CBF0020D9
:1007D0000120704700ED00E0040E0020F8B50D4642
:1007E000EFF3108772B6124ED6E8CF2F0123002AFE
:1007F000FAD1C6E8423F002AF6D1BFF35F8F0D4B16
:1008000000F110049B680C4A53F82430934203D043
:10081000994201D001F06EF8064B9B6843F82450D2
:10082000BFF35F8F0023C6E88F3F87F31088F8BDC2
:100830008D13002000ED00E0110100102DE9F04FB4
:1008400081468B46164683B0EFF3108372B6DFF80D
:10085000D0A10093DAE8CF1F01230029FAD1CAE81A
:10086000413F0029F6D1BFF35F8F664B93F90040FB
:10087000002CC0F2A080644D04EB440705EB870810
:1008800098F8061009F110091970604BBF009B68B9
:1008900053F829006300411B2F292FD95C49884256
:1008A00040F0A4801C445B4B02372F44043BDB1B0D
:1008B000C3F34A036FEAC3434FF421416FEAD343C2
:1008C00025F8241005EB840463804BF60153A380C4
:1008D000FF2348F00100E671C4F808B0A3714B4B48
:1008E0009B6843F82900BFF35F8F0023CAE88F3F5E
:1008F000009B83F3108803B0BDE8F08F20F0010E59
:100900009EF80710B1422ED84FF42143EB53414BD0
:10091000B91C2944043B04375B1A2F44AEF104018F
:100920003D4CC91BC1F34A012143A8F80410C3F38D
:100930004A033A492343A8F802304AF6AA207346EC
:100940005B1B5B415843000D88F8076088F8060080
:10095000C8F808B048F00100CEF80010BFE7D17920
:10096000B1422ED996469EF906C00CEB4C02BCF162
:10097000000F05EB8202F2DA4BF601510EF1040290
:10098000A8F10407BF1AC7F34A076FEAC7476FEA1F
:10099000D7478EF8064003EB0408204C05EB88038C
:1009A000AEF8047045F82840998083F806C0DE71DF
:1009B000C3F808B093E700F09DFF124B93F9004095
:1009C00059E7724632F8041F490514D4491502311B
:1009D00002EB410101916FF00701C91B019F491B07
:1009E0003944C1F34A0141F46041C9E7019300F081
:1009F00081FF019B56E701F5FF1101F5FF511F3102
:100A0000E4E700BF701C0020040E002000ED00E0B1
:100A100011010010340E002000E0FFFF0148804764
:100A20008D1300202DE9F04F83B0EFF3108A72B6DA
:100A3000744ED6E8CF2F0123002AFAD1C6E8423FF0
:100A4000002AF6D1BFF35F8F6F4B00F110089B684F
:100A50006E4A53F8285095423FD08D420C464AD0FA
:100A60006B4FEB1B2F2B38D801214FEA50194FEA5F
:100A7000890909F1604909F5614900F01F0301FA8C
:100A800003F0D9F80030C9F8800000EA030BBFF387
:100A90005F8FEFF30581C9B279B3884577D125F02F
:100AA000010EDEF808C0644505D17CE0D3F808C02B
:100AB000644532D09E469EF9062002EB4203002A8E
:100AC00007EB8303F2DA644500F08180BBF1000F8D
:100AD00020D0C9F88001C9F800004B4B9B6843F84F
:100AE0002850BFF35F8F0023C6E88F3F8AF310883A
:100AF00003B0BDE8F08F1546EFE725F0010EDEF8F4
:100B000008C06445D7D19EF906407346002C08DA28
:100B1000154666E0C9F88000DFE793F90640002C2F
:100B200056DB04EB440C07EB8C0CDCF8082061006E
:100B30009A609CF80720DA719CF90620002A9A71C5
:100B40005DDBBCF80420520504D502F5FF1202F566
:100B5000FF521F32521502F1020C4FF0040E0C220C
:100B600012FB04E202EB4C026FF0070C3A44ACEBD0
:100B7000030C6244C2F34A0242F460429A80254B5D
:100B800021441A7807EB81011C708A719EE7CDE938
:100B9000000100F0AFFEDDE9000125F0010EDEF8F6
:100BA00008C0644587D19EF906407346002CB8DA28
:100BB000194A1A4CD21A083AC2F30A316FEA0151A3
:100BC0006FEA115144EA5202DA8099807EE7734657
:100BD0000029EDD1FF228EF806204BF60152AEF827
:100BE00004200C4C4AF6AA2294F800C01946C91BEE
:100BF00049414A43120D83F806C0227066E74BF65E
:100C00000152BBE78D13002000ED00E01101001040
:100C1000040E0020701C00203E0E002000F8FFFF94
:100C2000F0B5EFF30585EDB2EFF3108C72B62649FF
:100C3000D1E8CF2F0123002AFAD1C1E8423F002A90
:100C4000F6D1BFF35F8F214E40F0010EB4684AF633
:100C5000AA2354F825701E4A0446A41A644163432B
:100C60001B0D77455BB21BD092F906409C421CD00D
:100C700092F912409C4223D092F91E409C4221D00E
:100C800092F92A409C4208BF03240FD0114A002445
:100C9000157813708571C1E88F4F8CF31088F0BD03
:100CA000B2680D4C42F82540F0E7002404EB440400
:100CB00002EB8402FF2494714BF601549480E5E723
:100CC0000124F3E70224F1E78D13002000ED00E09A
:100CD000040E0020701C00201101001010B5074CFC
:100CE00082B001460523002200940548FFF796FCD8
:100CF0000028A8BFC0F1330002B010BDA04800100A
:100D0000741C0020014B0B440360704784130020C7
:100D100070B5104C104DAC420ED2FF26236863B163
:100D2000FFF7CAFC01462046FFF7ECFFA680BFF3A1
:100D30005F8F0834AC42F1D370BDFFF7BDFC0146B4
:100D40002046FFF7DFFF2671BFF35F8F0834AC4208
:100D5000E4D370BD9C0E0020A40E002010B5044604
:100D6000FFF7AAFC01462046FFF7CCFFFF232371C3
:100D7000BFF35F8F10BD00BF10B504460120FFF721
:100D8000A7FC034B03442360BFF35F8F10BD00BF7C
:100D900084130020024B0B440360BFF35F8F704746
:100DA000841300200D4B1A68EFF3108172B6D2E85D
:100DB000CFCF0120BCF1000FF9D1C2E84C0FBCF13C
:100DC000000FF4D1BFF35F8F00221B68C3E88F2FA1
:100DD00081F3108840BF002000217047501C002084
:100DE0002DE9F04F2DED028B85B0EFF30583DBB2DB
:100DF000103B9A0818BF01224FF0010103F00300D5
:100E000018BFAF4DAF4B08BFAF4D00EB820253F898
:100E1000226001FA00FB05F541539FEDA78B01907D
:100E2000C3F804B02EE0B388180440F19280B3797F
:100E3000002B40F0DC80B6F908100029C0F21D81BB
:100E4000736901EB410103EBC103D3E90247B7F139
:100E5000FF3F08BFB4F1FF3F0DD0019B05EB8301BD
:100E6000AB6A0A69D21AE31A934203D32B6A13EAD4
:100E70000B0F00D10C61284600F0A6FBA042B9413F
:100E8000C0F2FB80B6F90830C5F83CB0002B0093E7
:100E9000C9DBD6F8149003EB430A284609EBCA07CE
:100EA000D7E9024800F090FBA04271EB0801BADBE1
:100EB000B8F1000FC0F2C380D7E90431834A9342EE
:100EC00000F0ED807A88B6F9080092B242EA00405C
:100ED000984702460B4652EA030100F0B080002B0F
:100EE00080F2D180B4EB020E68EB030839F93A3096
:100EF000C7E902E8002B96DB716903EB430201EBC3
:100F0000C202D2E90270BE4578EB000C4FEA430200
:100F100089DBB4462CF8083F0BE031F93230A446A7
:100F2000002B0DDB03EB430001EBC0005A00D0E9BE
:100F30000270BE451A4478EB000001EBC204ECDA03
:100F400029F83A30009BACF80030B38818043FF51C
:100F50006EAF3369EFF3108272B6D3E8CF0F012181
:100F60000028FAD1C3E8401F0028F6D1BFF35F8FF5
:100F70004FF6FF74B0880023316900B2B480C1E835
:100F80008F3F82F310889842FFF651AF0746A9467B
:100F9000746906F1080807EB470E04EBCE03D3E9AA
:100FA0000250B6F90830C446002B13DBB246009756
:100FB00004E034F936309446002B09DB03EB43069A
:100FC00004EBC602D2E90271BD4270EB0101F0DA16
:100FD0005646009FACF8007034F93E7024F83E305D
:100FE000002FD8DAB3794D46002B3FF424AF00230D
:100FF000B371B6F9083006F10808591C3DD01946FE
:10100000776903E080465A1C3FF417AF03EB4302B5
:1010100007EBC200B0F802C01C461CF4004F9E460D
:1010200037F93230EED08C4280ED028B05D0A8F833
:101030000030318927F8321034817146E3E739F8FE
:101040003A3033813369EFF3108272B6D3E8CF0FB1
:1010500001210028FAD1C3E8401F0028F6D1BFF3D0
:101060005F8F7388316929F83A30009B73800023C1
:10107000C1E88F3F82F31088D5E640BF05B0BDECD4
:10108000028BBDE8F08F2846CDE9022300F09CFAE0
:10109000029A039B10EB020E43EB010826E7084679
:1010A0000B69029198470028C9D00299D1E9002321
:1010B00011E700BFAFF30080FFFFFFFFFFFFFFFF5F
:1010C00000800B40201C002000000B40E10D0010B0
:1010D0002DE9F84F364C25692DB1BDE8F84F0A21AE
:1010E0003448FFF70FBEDFF8E4800321404600F0EC
:1010F00059FA0326C4F80C80FFF7DEFA4FF0504C83
:101100002D4B267003442361DCF800300F216370FF
:10111000636961801D834FF00405A3F878504FF098
:101120000505A3F890504FF00605A3F8A8504FF01E
:1011300007050E214FF6FF7208274FF00A0EA3F89D
:10114000C0504FF001094FF00C0C4FF0020B4FF064
:10115000090A0D204FF00B05A3F868111749A2806A
:10116000A3F808E1A160A3F848B0A3F8F0A0A3F8A1
:101170002051A3F838C1A3F85001A3F83090A3F888
:101180006060A3F8D8701A800D4B3046C8F8207004
:101190000C49DC60FFF722FB49463046FFF7DCFADA
:1011A000094B0A211F640348BDE8F84FFFF7AABDA9
:1011B0004C0E0020501C002084130020FFFF100064
:1011C000201C0020E10D001000200B4000000B400F
:1011D000004870474C0E0020F8B59DF8207004467A
:1011E00016461D4637B900F0F7F9864265EB010156
:1011F00000295CDB2369EFF3108772B6D3E8CF1FB9
:1012000001220029FAD1C3E8412F0029F6D1BFF30A
:101210005F8FB4F902C063690CEB4C01BCF1000FA5
:101220004FEAC10203EBC10138DB985A4FF0000EC0
:1012300060802069C0E88FEF87F310880698C1E9C5
:10124000026508610798486148880130C0F30E00C4
:10125000012838BF0120488040EA0C402169EFF3A3
:10126000108572B6D1E8CF7F0126002FFAD1C1E8F0
:10127000476F002FF6D1BFF35F8FA1889952A4F872
:1012800004C02369C3E88FEF85F310880122E36867
:10129000217803F501538A405A60F8BD0023226982
:1012A000C2E88F3F87F310884FF0FF30F8BD384613
:1012B000F8BD00BF0146F0B50069EFF3108772B6C4
:1012C000D0E8CF5F0124002DFAD1C0E8454F002DB2
:1012D000F6D1BFF35F8FB1F902E04C690EEB4E0C13
:1012E000BEF1000F4FEACC0504EBCC0C3DDB605B9C
:1012F000002648800869C0E88F6F87F31088BCF823
:101300000200CCE902230130C0F30E00012838BFEF
:101310000120059BACF80200CCF81030069B40EA97
:101320000E40CCF814300B69EFF3108272B6D3E89C
:10133000CFCF0127BCF1000FF9D1C3E84C7FBCF13E
:10134000000FF4D1BFF35F8F8B886353A1F804E0E3
:101350000B69C3E88F6F82F310880122CB6809788C
:1013600003F501538A405A60F0BD00230A69C2E8C0
:101370008F3F87F310884FF0FF30F0BD0346408960
:10138000B0EB214F37DD58690A1402EB420210B569
:1013900000EBC2001C69EFF3108C72B6D4E8CFEFFB
:1013A0000122BEF1000FF9D1C4E84E2FBEF1000FAB
:1013B000F4D1BFF35F8F428889B292B28A4207D0DC
:1013C00000221B69C3E88F2F8CF31088002010BD0A
:1013D00042F4004242800121002218699971C0E85C
:1013E0008F2F8CF310881C78DA68084602F50153B9
:1013F000A140596010BD0020704700BF4078704781
:101400002DE9F041861F41F1FF35B04271EB050334
:1014100038BF002682B038BF354604460F4600F07C
:10142000DBF8301A65EB0103012873F1000306DADB
:101430002046394602B0BDE8F04100F0D7B800F0D0
:10144000CBF8864265EB010100290ADB0021174B2E
:101450003246009316482B460191FFF72BFF0028D8
:10146000E6DB4FF0000C1348134A436A9D4204D850
:10147000816AB142DCD29D42DAD11368EFF3108168
:1014800072B6D3E8CF8F5FF0010EB8F1000FF8D13C
:10149000C3E848EFB8F1000FF3D1BFF35F8F1368D3
:1014A000C3E88FCF81F3108820BFDEE7A50D0010C1
:1014B0004C0E002000000B40501C002010B50446CC
:1014C00000F08AF84FF47A734FF0FF3C6FF000425F
:1014D000E4FB0301BDE81040844572EB01033CBF0F
:1014E00060461146FFF78CBF2DE9F04306460D46D6
:1014F00083B0EFF30584E4B23CB1274B586AA842AD
:101500001CD2002003B0BDE8F083244FD7F80C9024
:1015100097F80080484600F057F808F1040859F899
:1015200028301B1A301A65EB0101984271F1000155
:1015300011DB20BF184B586AA842E2D39B6AB34222
:1015400003D3012003B0BDE8F083401B18BF012086
:1015500003B0BDE8F08300F03FF8864265EB01017F
:101560000029CADB0E4B3846CDE9003432462B4603
:10157000FFF7A0FE011EC0DD074B5A6AAA4208D33E
:101580009B6AB34203D30548FFF7F8FEB5E7AA42CA
:10159000F9D120BFF7E700BF00000B404C0E002040
:1015A000A50D001010B4054B054C064AA04214BF0F
:1015B0001846581C5DF8044BFFF704B8AC17002020
:1015C00000800B40BC4800100346416A0A46986AF6
:1015D000596A8A42FAD17047034B596A0A46986A97
:1015E000596A9142FAD1704700000B40074A536A8A
:1015F0009942FCD8994207D1044B02E05A6A9142C1
:1016000002D19A6A8242F9D3704700BF00000B40B2
:1016100000EB400C4FEA8C0C0CF1804C0CF5803C3C
:10162000F0B51646DCF80420051FB2F5803F38BF40
:101630004FF48032EDB238BFCCF80420012D2AD906
:101640004FF40067254C0CF54052176054F82020E9
:10165000B2B9DCF80020012D82EA461202F0E00265
:101660000CF5805632602AD94FF4006144F82030DE
:101670004FF480330CF500521160CCF80430F0BD0B
:101680006769B7FBF2FE0EF1010E0EEB4E0EBEF1D6
:10169000030EFCD2DDE70129D2D103240CF5405220
:1016A0001460DCF80820D207FBD5DCF800200B4CD6
:1016B00082EA461202F0E0020CF580563260012206
:1016C000DCF800504D4005F00305356002FA01F1E9
:1016D000DCF808200A42FBD0C6E700BFB0170020A4
:1016E000014B53F820007047B017002070B4039DE1
:1016F00004682D0345EA03451B4B002CB3FBF1F3B3
:10170000B2FBF3F61FDB194A194B904214BF4FF49A
:1017100080424FF40042174C1A6003F580531A6060
:10172000A36832EA0303FBD1212200F540530433BE
:10173000016086601A600268002AFCDA0822C5602F
:101740001A6070BC7047036803F03F038B42DAD124
:101750008368C3F30B03B342D5D1C36803F4EE230C
:10176000AB42D0D1EDE700BF001BB70000800540C1
:10177000002002400000024030B44FF080441C4B77
:101780001C60E0B11B4CA3F54053DC611A4C40F0E7
:10179000010044401C62596298624FF080454FF04E
:1017A000E061134B1548164C1D60846019604AB9FE
:1017B00030BC4FF00042A3F580531A607047114BC4
:1017C000D861EAE74FF47A7303FB02F2B2F1807F4B
:1017D0002ABF6FF07F4313461A464FF080410A4CF0
:1017E00008482360094B426030BC1960704700BF55
:1017F00000B00D40D3C007B02D3FF84F00A001400E
:10180000F3FFFF0100800D40101C002000A00D40E0
:10181000012300EB4000800000F1804000F58410BF
:1018200041600360704700BF002370B5DB8A044647
:101830000D46002242E800F2520254BF102104215A
:1018400044F25220984786462B462246F446BDE88D
:1018500070400A214FF48170604700BF0023DB8A8B
:10186000002242E800F2520201D41021184704215C
:10187000184700BF08B503460846191E02DB1AB117
:1018800040F03000FFF7D0FF40F02000FAE700BF43
:10189000034AD2F82838002BFBD0BFF35F8F704784
:1018A00000000E400021044B044ABFF35F8F43F851
:1018B000041B9342F9D170470C080E402C080E40CF
:1018C00010B44FF48D704FF42A64064A064B074952
:1018D0001460D06019605368002BFCDA5DF8044B8B
:1018E000704700BF0080044000A0044000B0FA0030
:1018F000704700BF08B50148FEF74CFEE0480010F5
:1019000038B5054C054DAC4204D254F8043B984719
:10191000AC42FAD338BD00BF104800105048001048
:1019200010B40748074C084B084A094904601A607C
:101930008B6832EA0303FBD15DF8044B704700BFAC
:10194000002002407F3BEFEF00300240F6FFF30340
:1019500000000240044BDB6CB3F5004F03D14FF4A1
:101960008022024BDA6470470000115000201150B1
:101970004FF0E022044BD2F8881D0B43C2F8883D9B
:1019800010EE3004704700BF030330006FF0604179
:10199000044B054A19609368DB4333F06043FAD186
:1019A000704700BF003002400000024010B545F211
:1019B0005320FFF753FFBDE81040034604201847AB
:1019C00010B545F25320FFF749FFBDE8104003462C
:1019D00001201847FEF794BE70B51449144C154DFC
:1019E000641AA610442E324628BF4422284692008C
:1019F00002F0ECFDB4F5867F13D80F4AC6F144011E
:101A000012D02B19480803EBC000C3E900220833A9
:101A10008342FAD1CB0704D521F00103334445F8C2
:101A20002320064B9D6070BD4323F8E700000010A3
:101A300010010010000000201101001000ED00E076
:101A4000002370B52B4C82B0C4F88430FFF738FF08
:101A50000122294BDA63636C012BFCD10321264A56
:101A6000244B11639C6B012CFCD1022605252146D9
:101A70000523224A22480096FFF738FE21462B46CE
:101A8000204A21480095FFF731FE0022042031460C
:101A90001E4BFFF7BDFD2146284600221C4BFFF7D9
:101AA000B7FD0022082011461A4BFFF7B1FD0022B6
:101AB00009201146174BFFF7ABFD00220620114607
:101AC000134BFFF7A5FD0022114B07201146FFF72E
:101AD0009FFD0420FFF704FE00240F4BA3FB0035FD
:101AE000AD0CE0B229460134FFF792FE062CF8D186
:101AF00002B070BD0000014000300140002F685965
:101B000000000540008C864700800540001BB700A0
:101B100080D1F008006CDC0283DE1B4300B9704703
:101B200000F01CB910B5094B84B01C684CB10346D9
:101B300000914FF0FF3203A90548A047012004B0EF
:101B400010BD00F04DF9204604B010BD0C1C002063
:101B50001D1B001000BEFDE708B5FFF7FBFF00BF2F
:101B600038B5064C064DFFF7CBFEAC4204D254F814
:101B7000043B9847AC42FAD338BD00BF5048001030
:101B80005C4800100368084611461847437D2DE95C
:101B9000F04781460F461646002B43D0002A3BDD16
:101BA000037D00204D1E014615F8012FDFF88480CB
:101BB0000A2A01F101040ED0A6421CD02B7821463E
:101BC000A3F10D03B3FA83F315F8012F5B090A2A79
:101BD00001F10104F0D1002BEED18142A1EB000113
:101BE00038441BDC02214046D9F800309847A64211
:101BF00008D02046E2E7864204DD311AD9F80030E9
:101C000038449847374417F8013CA3F10D03B3FA61
:101C100083F35B0989F81430BDE8F087D9F8003008
:101C20009847DFE73846D9F800301146BDE8F0475D
:101C3000184700BF1C4A00102DE9F04782B00D463E
:101C4000924699460746FFF7C7FC4FF0FF366FF004
:101C500000442F4A821841F10003964274EB0301BD
:101C60003CBF324623462B4802F0C6FD6B1C804623
:101C700003D1384602F026FD0546274B274E1C6847
:101C8000274BB9F1000F18BF1E46B4B1BAF1000FCF
:101C90001AD1DFF8909001E0246974B12368002B19
:101CA000FAD0D9F800300BB19C42F5D120462A4633
:101CB0003946B0472469002CF0D1B8F1000F1FD18C
:101CC000284602B0BDE8F0874FF00A0ADFF85490CA
:101CD00002E02469002CF0D02368002BF9D0D9F859
:101CE00000300BB1A342F4D12A4639462046B04712
:101CF000012220460DF107018DF807A0B047E8E763
:101D0000044802F069FD284602B0BDE8F08700BF34
:101D100040420F009C0E002000180020851B001080
:101D20008D1B0010081800200A4A13684BB183422B
:101D300002D109E0984207D003F110021B69002B81
:101D4000F8D101B1106070470029FCD1036913601C
:101D5000016170470018002000F06EBAF0B583B042
:101D600006468DF80700FFF737FC4FF0FF356FF0A0
:101D70000044174A821841F10003954274EB0301B5
:101D80003CBF23462A46134802F036FD124B074655
:101D90001C689CB1114D01E024697CB12368002BC3
:101DA000FAD02B680BB19C42F6D1204601220DF1EE
:101DB0000701FFF7EBFE2469002CEFD117B930467D
:101DC00003B0F0BD034802F007FD304603B0F0BD9C
:101DD00040420F009C0E0020001800200818002030
:101DE00038B5044602F06EFC012305461A4620462B
:101DF0002946FFF721FF084B1C682CB163682BB103
:101E000098472469002CF9D1284638BD2469002C54
:101E1000F4D1284638BD00BF00180020704700BF2D
:101E20000022014B1A707047711C00204B79FF2B68
:101E30000BD1887948B9CB79012B07D1082A05D96C
:101E4000034B8A7809201A7070470020704700BF42
:101E5000711C002001207047012901D0012070472A
:101E600008B5104B91881B78994201D0002008BD1D
:101E70005378012B08D0022BF8D1002164220846A8
:101E8000FFF77AFC012008BD5188CB054BBF4A0AF9
:101E90004A0A10464FF0FF3002F0010201F07F01C4
:101EA000FFF7E8FC711C002000487047E84A00106A
:101EB000012907D15378012B02D19388072B03D036
:101EC00000207047012070471146A623014A01F007
:101ED00041BA00BF404A00100346012201481A706F
:101EE000704700BF204A001008B50B68B3F5966F25
:101EF00000D008BD00224FF0FF301146FFF7BAFCBA
:101F0000024A034B10601960704700BFA017002001
:101F1000A4170020184B70B51A68002A28D0EFF3D8
:101F2000108172B6D2E8CF4F0120002CFAD1C2E85E
:101F3000440F002CF6D1BFF35F8F00220F4C1868BE
:101F400059602270C0E88F2F81F31088002400258B
:101F50000B4E3078FEF716FC20B9002400252046F1
:101F6000294670BD3078FEF71DFC2046294670BD1D
:101F70004FF47A740025EBE7181C0020731C002036
:101F8000721C0020014B1878FEF70CBC721C00205C
:101F900038B5044600200D4601F008FBA8B3002028
:101FA00001F01AFB88B3FFF717FB4FF0FF3E6FF00D
:101FB000004C174A821841F1000396457CEB03015F
:101FC0003CBF72466346134802F016FCE8B100209D
:101FD00001F0ECFA58B900214FF0FF3000F012FD8B
:101FE0006FF002040B4802F0F7FB204638BD0020DA
:101FF00001F0F2FA0028EED021462A46002001F036
:10200000F7FA04460028EDD1EAE76FF00204ECE7A6
:1020100040420F00541C002008B5FFF7DDFA4FF0D6
:10202000FF3E6FF0004C0F4A821841F100039645C5
:102030007CEB03013CBF724663460B4802F0DCFBBD
:1020400070B14FF0FF30002100F0DCFC002001F007
:1020500015FB0028F5D1BDE80840034802F0BCBBE1
:1020600008BD00BF40420F00541C00202DE9F8437A
:1020700007460E46FFF7B0FA4FF0FF356FF0004409
:10208000334A821841F10003954274EB03013CBFCF
:102090002A4623462F4802F0AFFB08B9BDE8F88373
:1020A000002001F083FA002848D0002E41DD0025F1
:1020B000DFF8A480DFF8A49013E02246002001F0AE
:1020C00023FB002104464FF0FF3000F09BFC002072
:1020D00001F0D4FAFFF780FAC8E900012544AE42C6
:1020E00027DD002001F032FB741B8442A8BF0446A8
:1020F0007919002CE1D121464FF0FF3000F082FC2D
:10210000204601F0BBFA204601F050FA88B1204683
:1021100001F01CFB0028E2D1FFF75EFAD8F800308E
:10212000D8F8042013EB090342F1000283428A41EC
:10213000D5D20848BDE8F84302F04EBB002000218C
:10214000054BC3E90001BDE8F843024802F044BB77
:1021500040420F00541C0020F010002020A1070076
:1021600030B5002185B02E4802F04EFBF0B92D4B62
:102170001A68CAB1EFF3108172B6D2E8CF5F0124BA
:10218000002DFAD1C2E8454F002DF6D1BFF35F8F85
:10219000254C1D6822785960D3B201222270C5E80F
:1021A0008F0F81F31088CBB105B030BD00214FF007
:1021B000FF3000F027FC002001F00EFA044618481A
:1021C00002F00AFB002CEFD0184B1B68002BEBD061
:1021D000174A106805B0BDE830401847FEF7F8FF11
:1021E0000446FFF7F9F94FF0FF3C6FF0004510F59A
:1021F0007A7241F10003944575EB030138BF2B4619
:102200004FF000014FF0010520460A4C38BF6246EE
:10221000CDE901150094FEF7DFFF05B030BD00BF2A
:10222000541C0020181C0020731C0020A017002044
:10223000A4170020151F00104FF0504330B585B093
:102240001C68FEF7C5FFFFF7D9F8A04202D00020B6
:1022500005B030BD00212A4B08461B7801F046FD31
:1022600028480368002B47D00120FEF737FD0346BE
:10227000254C2649C0B22370FEF7B0FA2078012120
:10228000FEF76AFA0E20FEF799FA40BB204B0125B3
:10229000C3E90000FEF79CFF0446FFF79DF94FF0ED
:1022A000FF3E6FF0004C10F57A7241F10003964545
:1022B0007CEB03014FF000012046164C3CBF7246F8
:1022C0006346CDE901150094FEF786FF0028BEDBCA
:1022D00001211148FFF728FD012005B030BD012084
:1022E000FEF7F6F901460A48FEF754FD00220E20DB
:1022F0000A49FEF7A3FAEBE7FEF730FDB4E700BFAB
:10230000FC4B0010541C0020721C002061210010A6
:10231000181C0020151F0010640E0020851F0010DF
:1023200000487047844B001000487047304B001045
:1023300038B5184B04461A780AB344B940F209423A
:102340004FF44173144D6A8013482B8038BD052C1F
:102350001AD8124B104D53F8241028460023013987
:1023600003E0132B20F8022F10D011F8012F0133B6
:10237000DBB2002AF5D15B0043F44073E4E711219E
:10238000184600F025F8D8E7002038BD4FF44A730E
:10239000DAE700BF5C1C0020D8170020184B0010A3
:1023A00000B545F247308BB0FFF758FA01220346DB
:1023B000092101A89847DDE90332044912BA1BBA82
:1023C000C1E900230BB05DF804FB00BF481C0020EE
:1023D000012901F1FF3300F0B3805D490A784FEA2B
:1023E000121C9F2A8CBF0CF1370C0CF1300C012B06
:1023F00080F800C000F0A78002F00F02092A8CBF0D
:1024000037323032022B427000F09D804A784FEA1A
:10241000121C9F2A8CBF0CF1370C0CF1300C032BD3
:1024200080F802C000F08F8002F00F02092A8CBFF2
:1024300037323032042BC27000F085808A784FEA40
:10244000121C9F2A8CBF0CF1370C0CF1300C052BA1
:1024500080F804C077D002F00F02092A8CBF37320F
:102460003032062B42716ED0CA784FEA121C9F2A76
:102470008CBF0CF1370C0CF1300C072B80F806C028
:1024800061D002F00F02092A8CBF37323032082B9C
:10249000C27158D00A794FEA121C9F2A8CBF0CF1E6
:1024A000370C0CF1300C092B80F808C04BD002F02F
:1024B0000F02092A8CBF373230320A2B427242D0C7
:1024C0004A794FEA121C9F2A8CBF0CF1370C0CF191
:1024D000300C0B2B80F80AC035D002F00F02092A0D
:1024E0008CBF373230320C2BC2722CD08A794FEA33
:1024F000121C9F2A8CBF0CF1370C0CF1300C0D2BE9
:1025000080F80CC01FD002F00F02092A8CBF3732AE
:1025100030320E2B427316D0CA7911099F2A8CBF14
:10252000373130310F2B81730DD002F00F02092AA1
:1025300094BF30323732102BC27318BF103002D024
:10254000002303707047184400230370704700BFD6
:10255000481C002070B500F033F90C2340261B4CBA
:10256000FF22A3670E201A49FEF768F9194B32467D
:102570000021184601F0D8FF0346002101258020E4
:10258000154A58849A60843A5D701E831E8759608C
:10259000C2F88410C2F8801002F58072DA60DA6244
:1025A000803A83F8211083F83B1059629A624FF009
:1025B000005602F019F94FF480320849084B25649F
:1025C0002846E664C4F89010DA6470BD000011502B
:1025D000A90300200C1800208400105010D0010026
:1025E0000020115001210E20FEF7B6B8002202484B
:1025F000114600F005B900BF2C180020044B1970DB
:1026000021B14FF40032034BC3F89020704700BF54
:102610006E1C0020002011500B785B0602D14B7815
:10262000052B00D070474B88014ADBB2136070471E
:1026300000001150CB782DE9F04103F0030EBEF1FC
:10264000010FC3F301005DD0002791F802C0354CA3
:102650000CF07F035E00898806EBDC1204EB42126B
:102660004FEADC15D076C1F30A0185F00100507005
:1026700082F802C01183D77018B2DA008DBB2A48E5
:10268000043204EB831C02EB0008CCF808801750DE
:102690008BB3264ADB001A44CCF80420244B3F318C
:1026A0001A6821F03F01BEF1020F08BF4900114432
:1026B0001960204B771904EB47179942FA602CD820
:1026C0002E4404EB4613D97E82F0A04282F480129D
:1026D0005B6842EA816242F000421A600120BDE874
:1026E000F081DFF844C004EB83186244C8F8282066
:1026F0004CF830704BB900220F4904EB4513D960F8
:102700005A60EBE70020BDE8F081DB0003F1A04355
:1027100003F58013C8F82430C0E7FFF7EBF8FA6838
:10272000CEE700BF0C1800208000105004001050AD
:10273000141C0020FF0F10500001105002F054B87C
:102740008C4608B5114607481A460CF07F034FEA3D
:10275000DC1C0CEB430C00EB4C1000F051F801209A
:1027600008BD00BF0C180020CB0911F07F0103D178
:10277000064AC3F102009066054803EB41034FF49B
:102780000062002100EB431002F032B8002011502B
:102790000C18002011F07F0300D17047002210B404
:1027A000C809064C00EB430004EB40136FF40061D2
:1027B00018465DF8044BDA7002F01AB80C180020C5
:1027C0004FF0805209480A4908B50A4B02600A6076
:1027D0009968C94311F08051FAD14FF480520648EC
:1027E00001F0A2FE0922054B5A6708BD00200240F5
:1027F0000030024000000240000010500000115064
:1028000000234FF0010C10B580F81AC08282C382F9
:102810000161044601F0E4FF20B14FF40032074BA0
:10282000C3F89020204601F0EBFF10B1012323777D
:1028300010BD2046BDE8104001F0CABF0020115075
:102840002DE9F04100241D4E054623463278DFF87D
:1028500078801B4F0DE03B6813EB441325D0DB68F9
:102860002846984732780134E4B2511CA1422346ED
:1028700006DBA242A3EB0203EDD808EB4313EEE71D
:10288000104C54220021204601F04EFE4FF0FF3341
:10289000251D6360C5E90133EB6004F114002022BB
:1028A000BDE8F041FF2101F03FBE4FF0E023D3F837
:1028B000F03DDB0700D500BEBDE8F0816D1C0020B7
:1028C000A8120020B0130020984B0010704700BFE2
:1028D000704700BF0020704700207047704700BF5E
:1028E000704700BF704700BF704700BF024B587869
:1028F000003818BF01207047B0130020024B187831
:10290000C0F38000704700BFB01300202DE9F047EE
:10291000DFF8E8A09AF80030FF2B02D00120BDE8D4
:10292000F0870E4600293ED0002154220746294850
:1029300001F0FAFD0022284C284B20461A70FEF7C1
:102940000DFA274B27481C60274CFEF715FA204646
:1029500001F0B0FD254A264B264D146063B328468E
:10296000FFF7BAFA244B2A7818600024DFF8909019
:102970002346DFF884800EE0D8F8003013EB4413D0
:1029800011D05B687BB198472A780134E4B2511CBE
:10299000A142234612DBA242EED89B1A09EB431355
:1029A0005B68002BEFD14FF0E023D3F8F03DDB075D
:1029B00000D500BE0020B2E72A78D6E73146384677
:1029C0008AF80070FFF7C6FD0028ECD03846FFF704
:1029D00009FEA3E7B0130020A81300206F1C0020FD
:1029E00004140020900E00207C0E0020081400200B
:1029F000D91E00106D1C0020A8120020980E002087
:102A0000984B00102DE9F04FDFF8C8928BB099F881
:102A10000030FF2B00F0F180A84CA94DDFF8B0A2E8
:102A2000DFF8B4B226687369EFF3108272B6D3E8A8
:102A3000CF0F01210028FAD1C3E8401F0028F6D1AA
:102A4000BFF35F8FB261304607A901F081FB00231D
:102A50007269C2E88F3FB36983F31088002800F0E1
:102A6000CC809DF81D30013B072B00F27D83DFE811
:102A700003F0A7B1959D8E350A04089B002BD1D099
:102A800009989847CEE79DF8201001F07F0605EBE6
:102A9000460000EBD11090F8343023F0010380F8A9
:102AA000343090F8343023F0040380F83430002EB2
:102AB00000F0A680037D9AF80020934280F0938076
:102AC000804A126812EB431300F090809E699DF8D3
:102AD0002120099B9DF81C00B047A3E79BF800301C
:102AE000002B00F083809BF80030013BDBB28BF8B9
:102AF00000309BF8003003F0FF00002B92D1704FA4
:102B00009DF81C803B7843F001033B7097F834300C
:102B100060F3000387F8343097F8343060F38203B1
:102B200087F8343097F8353060F3000387F8353094
:102B300097F8353060F3820387F8353000F06AFC8F
:102B40009DF8203003F06002602A6CD0402A7CD0CF
:102B500003F01F03012B00F0C180022B00F08180E5
:102B6000002B60D1202A00F0E981002A5BD19DF87A
:102B70002130092B57D8DFE813F0B001A20156002D
:102B8000C101560095016B0156006001F4002B78DD
:102B9000D9077FF547AFFFF7A7FE43E7EB78DA07E2
:102BA0007FF540AF0898FFF793FE3BE72B78D807F7
:102BB0007FF538AF2878C0F3C000FFF793FE31E708
:102BC0009DF81C00FFF73CFE00F01AFC9DF8203039
:102BD000AB7027E79DF81C00FFF732FE00F010FCF9
:102BE000FFF77EFE1EE7501C984211DA4FF0E023FB
:102BF000D3F8F03DDC0700D500BE0BB0BDE8F08F88
:102C0000099B9DF821209DF81C0000F017FC09E7A6
:102C10009B1A2D4A02EB431358E7FFF785FB024648
:102C2000002840F082814FF0E023D3F8F03DDE072A
:102C300000D500BE9DF81C000021FFF795FD802106
:102C40009DF81C00FFF790FDECE6204800F0E2FB49
:102C50000121404608AAFFF72BF900287FF4E2AED5
:102C6000E8E79DF8241011F0700FDCD101F07F0629
:102C700007EB4600164B00EBD1101B78007D760069
:102C8000019698424FEAD116009659D35E1C8642AF
:102C9000C0F26681C01A0C4B03EB4016002A00F00C
:102CA0006381706900F0B6FB01214046736908AA90
:102CB000984700287FF4B6AEBCE700BF0814002098
:102CC000B0130020A8120020984B0010B11E001075
:102CD0006D1C0020980E00206F1C00209DF82430F1
:102CE0000F2BA7D8AE4A3B441B791278934232D3BC
:102CF000511C99429EDBAB4E9B1A06EB4316706942
:102D000000F088FB01214046736908AA9847002813
:102D10007FF488AE9DF8203013F060068AD19DF8CC
:102D200021300A3B012B85D800F074FB9DF821303F
:102D30000A2B00F0F281404608A900F0F1FA71E692
:102D4000994B1B6803EB4016002A00F00D81002E02
:102D50003FF470AFA5E7944A166816EB4316CED140
:102D600068E77B789DF822609E4200F04F817B7877
:102D7000002B40F0BE817E70002E00F04581701E59
:102D8000C0B2FFF7D1FA0346002800F05F81427815
:102D9000022A40F05B81C17903F10906C1F34012B8
:102DA0001201C1F3801142EA41123146387820F015
:102DB000300002433A705A88CDF80C809A1801927C
:102DC000019B8B4240F2A4814A780B2A00F0AF812C
:102DD0000123042A40F03A810026019A0096521AF3
:102DE00092B202926E4A049312781DE06E4B1B68F9
:102DF00013EB461800F02A81029AD8F81030039895
:102E00000591984708280246059906F1010303D960
:102E10000298904280F0FF80DEB2614B00961A78F3
:102E2000531C9E4200F31281009BB242A3EB0202AC
:102E3000DCD85C4B03EB4218DEE77B7840468DF82C
:102E40001A300DF11A02012308A900F083FAE9E50E
:102E5000BDF82200030A013B020AC0B20E2B3FF666
:102E6000E9AE01A151F823F07D300010192F0010B8
:102E7000B9300010352C0010352C00109B3000109C
:102E8000192F0010352C0010352C0010352C001097
:102E9000352C0010352C0010352C0010352C00106E
:102EA0006F30001008A800F0BBFA40469DF82210D1
:102EB000FFF79CFB3B7843F002033B70B2E5BDF8A3
:102EC0002230012B7FF4B6AE3B78404623F0080356
:102ED00008A93B7000F024FAA4E540463B789A0824
:102EE00002F00202C3F340131343ADF81A300DF1A0
:102EF0001A02022308A900F02DFA93E5BDF822304A
:102F0000012B7FF497AE3B78404643F0080308A9B5
:102F10003B7000F005FA85E5022A3FF47EAEFFF72C
:102F2000DBFC024600283FF485AE4046538808A9E2
:102F300000F010FA00287FF475AD7BE69DF8243090
:102F40000F2B3FF677AE164A3B441B79127893421B
:102F50001DD2154A166816EB43167FF4A2AE69E639
:102F6000002A7FF467AE00269DF8212002F0FD03C1
:102F7000012B1BD0002A7FF456AE019B009A3B44E4
:102F8000134493F834304046C3F34003ADE7511C7B
:102F90009942FFF64FAE034E9B1A06EB431680E6AE
:102FA0006D1C0020984B0010A8120020BDF82230A4
:102FB000B3B9012A99F8000000F08680FFF7D4FB2E
:102FC000019B009A3B44134493F8342042F00202E0
:102FD00083F8342093F8342042F0010283F834203F
:102FE000002E3FF41FAD706900F014FA73690121DF
:102FF00008AA40469847002000F00CFA97F83530B0
:10300000DF073FF50FAD96E6FFF76AFC404608A9DB
:1030100000F086F906E5049B012B00F09E80002B52
:1030200000F08A80002091F8028005E08CF80460AE
:103030005FFA80FC63457FD908EB000C57FA8CFCE3
:103040009CF804E00130BEF1FF0FEFD04FF0E02319
:10305000D3F8F03DDA0700D500BE4FF0E023D3F8F7
:10306000F03DDB0700D500BE00237B70E2E5FEF7F4
:103070001BFF024600287FF458AFDBE5FFF750F94D
:10308000024600283FF4CFAD4046122308A900F0C5
:1030900061F900287FF4C6ACCCE5FFF71BFC0246C3
:1030A00000283FF4C7AD4046137808A900F052F954
:1030B00000287FF4B7ACBDE5BDF82410FFF738F960
:1030C00002460028EFD1B5E50293FFF763FB019AB2
:1030D000009B3A441A4492F83410029B63F3410176
:1030E00082F8341092F8341063F3000182F834103F
:1030F00076E700214046FFF781FA4046FFF71EFBC6
:10310000BB7840460093FFF79BFB009BBB7032E609
:10311000DDF80C80FFF7E2FB78E74046012308A9C1
:103120000DF11A028DF81A6000F014F97AE40A78A9
:10313000CB7811444A784CE6334610480492029109
:1031400000F07CFE0E4B049A02991B781144009A01
:1031500001339342BFF634AE78E7D8F810C009487F
:10316000844508BF02235DE74FF0E023D3F8F03D2C
:10317000DB077FF557AC00BE54E400BFC41300204A
:103180006D1C00204D3800102DE9F84FDDF8288027
:10319000002A3FD00C461E4615464FF0000B1F4F2D
:1031A000DFF87C9017E0204699F8021000F014FE3A
:1031B000F8B121465046FFF73DFA08B3A3780BF16A
:1031C000010BDA0916BF0B9A88F8003013702378C8
:1031D000AB451C441ED06378052B11D1E17801F07A
:1031E0000301B1420CD1A37897F800A013F0700F3F
:1031F000D9D04FF0E023D3F8F03DDA0700D500BE78
:103200004FF0E023D3F8F03DDB0700D500BE0020EF
:10321000BDE8F88F0120BDE8F88F00BF980E0020B0
:10322000B013002038B50E4B1D788B7813F0700F5B
:1032300008D04FF0E023D3F8F03DDB0700D500BE07
:10324000002038BD074B0C460846997800F0C4FDB5
:103250000028EED021462846BDE83840FFF7EAB9FD
:10326000980E0020B01300200B46064A064811684D
:10327000DA09343203F07F0302EB4303184400F011
:1032800065BD00BF04140020B01300200B46064AA1
:1032900006481168DA09343203F07F0302EB430376
:1032A000184400F07DBD00BF04140020B0130020BE
:1032B00010B5194C01F07F0E04EB4E0404EBD11451
:1032C00094F834C015481CF0010F04F13004007864
:1032D00008D04FF0E023D3F8F03DDA0700D500BE68
:1032E000002010BD94F804C04CF0010C84F804C018
:1032F000FFF726FA0028F4D14FF0E021227960F39D
:1033000000022271227960F382022271D1F8F03D2D
:10331000DB07E5D5E3E700BFB0130020980E0020DF
:1033200030B50B4C8C46A646054608684968002314
:10333000AEE803009CF800102846C943C4E90233F4
:10334000BDE830401A4601F08001FFF7B1BF00BF71
:10335000701300202DE9F041274F4FF00008BE46C2
:103360008C46064608684968BA60AEE80300A7F8CC
:103370000E801546BCF80620934228BF1346BB8139
:103380009AB11C462BB3DDB197F90030402C28BF11
:103390004024002B28DB414623463046174AFFF7DE
:1033A00087FF68B10120BDE8F0819CF8001013464A
:1033B000C943304601F08001FFF77AFF0028F1D1C0
:1033C0004FF0E023D3F8F03DDB0700D500BE00202E
:1033D000E9E71A46397801F0800123463046FFF7C5
:1033E00067FF0028DED1EBE722462946034801F0BB
:1033F000EDF88021014AF0E770130020301300201F
:103400000022034BC3E90022C3E902221A6170477C
:1034100070130020014B1861704700BF701300202B
:1034200030B40246044C0025234600685168C4E9C4
:10343000025530BC03C370477013002070B53C4C7C
:10344000C90922780646B1EBD21F1D4682B017D0BB
:1034500053B14FF0E023D3F8F03DDB0702D4002056
:1034600002B070BD00BEFAE72146FFF7D5F8236928
:103470001BB12246032130469847012002B070BD9F
:1034800094F90030A068002B05DB0028E7D02A461D
:10349000284901F09BF8E089A168E388284480B2BC
:1034A00029448342E081A16016D03F2D14D9A2891E
:1034B00094F90040131A9BB2402B28BF4023002CE4
:1034C00026DB90424FF0000130D01A4A3046FFF719
:1034D000EFFE0028D1D1BCE7236923B10221304699
:1034E000134A984758B121780023C94330461A46F9
:1034F00001F08001FFF7DCFE0028BED1A9E70146FC
:103500003046FFF731F980213046FFF72DF9B4E757
:10351000904208D01A460748019301F057F88021DD
:10352000044A019BD2E780210022CFE70A46CDE77B
:1035300070130020301300202DE9F0410446FFF7FE
:10354000D5F908B9BDE8F081FFF7D8F9074600289A
:10355000F8D1C822134B02FB0436F1780029F1D0D0
:1035600006F11005284600F0E1FD3F28EAD938466B
:10357000F178FFF779FE0028E4D0284600F0D6FD68
:103580003F2809D9084A3846F17802EBC412402393
:10359000BDE8F041FFF78CBE3846F178BDE8F04158
:1035A000FFF774BEA80E0020AC12002010B5044630
:1035B000FFF79CF908B9002010BDFFF79FF900281C
:1035C000F9D1C822034B02FB0433187900F0010043
:1035D00010BD00BFA80E0020C82108B5102301FBB4
:1035E0000030024A104400F087FD08BDA80E0020FC
:1035F0002DE9F8434FF6FF734FF0C80810249A42A4
:1036000028BF1A4618FB00441A4F06463C44204681
:1036100092B200F0E7FD0546FFF768F910B92846B9
:10362000BDE8F883FFF76AF981460028F7D108FB67
:103630000677FB78002BF2D0204600F077FD3F287C
:10364000EDD94846F978FFF70FFE0028E7D020466D
:1036500000F06CFD3F2808D9074A48464023F97816
:1036600002EBC612FFF724FED9E74846F978FFF7C8
:103670000DFED4E7A80E0020AC1200202DE9F04189
:103680000546FFF733F910B90020BDE8F081FFF7D8
:1036900035F906460028F7D14FF0C808242418FB56
:1036A0000544174F3C44204600F026FD0028EBD08F
:1036B00008FB05773046B978FFF7D6FD0028E3D040
:1036C0004022104B204602EBC5141C44214600F05A
:1036D00089FD054680B1034622463046B978FFF79A
:1036E000E7FD38B94FF0E023D3F8F03DDB07CBD549
:1036F00000BEC9E72846C8E7B978FFF7C7FDC3E7AA
:10370000A80E0020AC12002038B54FF6FF734FF022
:10371000240CC8249A4228BF1A4614FB00C40A4B42
:1037200092B21C440546204600F018FE034620468F
:103730001C4600F0E1FC3F2801D8204638BD284651
:10374000FFF79CFF204638BDA80E0020C82108B511
:10375000242301FB0030024A104400F0E7FC08BDBE
:10376000A80E0020F0B5194C83B0C82200212046D5
:1037700000F0DAFE0025FF234FF4E131082214485F
:1037800004F1B8070570009504F110006371A160A1
:10379000A27304F138010123402200F07DFC0123D3
:1037A000402204F17801009304F1240000F074FC3D
:1037B00004F1C0063846FDF7D1FA3046FDF7CEFADF
:1037C000C4E90757C4E90C6503B0F0BDA80E00209A
:1037D0002C130020094B196B49B11A6A12B100224F
:1037E000C3E907220022C3E90C22012070471A6AAC
:1037F000002AFAD00120C3E907117047A80E002063
:10380000002210B50E4C0F48237802600271DA07CF
:1038100007D59B070BD5BDE8104001210A4800F0F1
:1038200065BE103000F046FE23789B07F3D40648AF
:1038300000F040FEBDE810400121034800F056BEF4
:103840002C130020A80E0020CC0E0020F0B54B79E0
:1038500083B0022B03D00025284603B0F0BD8B793E
:10386000022BF8D1264FBB783BB14FF0E023D3F8C1
:10387000F03DDB07EFD500BEEDE78B7806463B70E9
:103880000B780925CC18617824290BD1082A02D895
:103890000FE0AA420DD323781C4461782B442429DD
:1038A0009DB2F6D005290AD0042902D163790A2BEA
:1038B00013D00020FFF740FE284603B0F0BD21469C
:1038C0003046FFF7AFFC0028CFD0A3787B70237879
:1038D0001C442B4461789DB2E6E70A4B277801939C
:1038E00001330093022330461A46E119FFF74CFCDE
:1038F0000028BAD00E3517FA85F5ADB2D9E700BF6A
:10390000A80E0020AA0E0020137803F06003202BDD
:1039100008D170B5264C938894F800C09C4503D01C
:10392000002070BD002070475378203B032BF7D850
:10393000DFE803F027230D0201292ED003291ED131
:103940001C4BE3B100205188AFF3008017E0012940
:1039500023D0032913D15588174805F0010686F0B6
:103960000101257100F0C2FD144B43B13146002026
:10397000C5F34002AFF3008001E0012911D001201E
:1039800070BD01290DD00329F9D10D4B002BF6D0C4
:1039900000200C49FEF7A8FAF1E71146FFF7C0FC3A
:1039A000EDE711460723074AFFF7D4FCE7E700BF1E
:1039B000A80E002000000000CC0E00200000000037
:1039C000E91E0010B00E00202DE9F047364F0C46DE
:1039D000FA7806468A421D4697F802C03CD08C45CC
:1039E00013D04FF0E023D3F8F03DDB0700D500BE45
:1039F0000020BDE8F0872D4B23B12D4800F08CFB53
:103A000000284ED00020FFF797FDBB78A34202D0DC
:103A10000120BDE8F087274B13B10020AFF30080F1
:103A20000020FFF72BFE0028F2D1234800F064FBB2
:103A30000028EDD1002DEBD015F03F05E8D1304640
:103A4000B978FFF711FC0028E2D02B462A46304611
:103A5000B978FFF72DFCDBE7DFF864809AB24146C6
:103A600007F1100000F07AFC144B002BC3D07B79D7
:103A7000FF2BC0D0002DBED007F1100908EB050ABE
:103A800002E0C245B7D07B7918F8012B9A42F8D1F1
:103A9000484600F041FB0028F3D17979AFF300806C
:103AA000EFE7AFF30080ADE7A80E002000000000B4
:103AB000B80E002000000000CC0E00200000000026
:103AC000AC120020F0B5144C85B04FF413720021F5
:103AD000204600F029FD402700234FF480760F4D4B
:103AE00004F5A6721946CDE90257009201961A46CE
:103AF00004F5947000F0CEF9002304F128013D4450
:103B0000009101221946CDE902570196201D00F0CF
:103B1000C1F905B0F0BD00BF4C150020CC14002049
:103B200010B5054C204600F0E1F9A4F5927000F0C4
:103B3000DDF9012010BD00BF7416002038B5002546
:103B4000064C04F59870257000F0B4FC04F10C00EC
:103B500000F0B0FC84F82951657138BD4C15002087
:103B60002DE9F84F4B79FF2B02D00020BDE8F88FEC
:103B7000394D0E4695F829310C78002BF5D16F7927
:103B8000002FF2D18B780C442B700B79002B3ED098
:103B9000804604EB020B05F5987A05F59479637875
:103BA000052B09D0A34502D831E05C452FD22378FC
:103BB0001C446378052BF8D1A34528D921464046FB
:103BC000FFF730FB00283ED0A378DB0923D1504615
:103BD00000F070FCA37895F8281185F82931A388A6
:103BE0004046C3F30A03A3F50073B3FA83F35B09FA
:103BF00063F3410185F82811494600F0E5F910B357
:103C00002378317901371C44FBB29942C7D8A11BF4
:103C100088B2BDE8F88F114800F04CFCA37895F805
:103C200004C06B71A3880E49C3F30A03A3F50073A4
:103C3000B3FA83F35B0963F3410C002085F804C0F9
:103C400000F08AF9DCE74FF0E023D3F8F03DDB0722
:103C50008BD500BE89E700BF4C1500205815002009
:103C60005015002070B51B4C064694F829C11D461E
:103C70008C45627904D08A4218BF002018D070BDEC
:103C8000B4F8343163B9144B23B100201349AAB2FC
:103C9000AFF300803046124900F096F9012070BD64
:103CA000D4F82C11AAB204F5987000F057FBEAE79B
:103CB0000C4B1BB10020A9B2AFF3008030460A497B
:103CC00000F04AF90028E9D12A463046064900F0BA
:103CD0000FF9E3E74C15002000000000CC14002091
:103CE00074160020000000005015002010B582B0AE
:103CF000B9B101280CD80B7853B1134C012B2354C4
:103D000002D0012002B010BDFEF700FE0028F8D15D
:103D10004FF0E023D3F8F03DDB0700D500BE0020D4
:103D2000F0E70124084601A9ADF80440FEF7EEFDD6
:103D300038B94FF0E023D3F8F03DDA07E2D500BE02
:103D4000E0E7014B1C70DDE7A4130020F8B5037811
:103D500013F001041AD1037805465A07C3F380070C
:103D600001D52046F8BD0E464FF0FF31304600F039
:103D70002BFD2B7813F001040BD12B785B0709D4B2
:103D80002B78012443F004032B7003E00024204629
:103D9000F8BD3C46304600F01FFD2046F8BD00BF90
:103DA00070B50C4605464FF0FF31204600F00CFD83
:103DB0002B78C3F380065B0708D52B7813F001033B
:103DC00011BF00262A7863F382022A70204600F091
:103DD00003FD304670BD00BFC378828803F0030046
:103DE0000228C2F30A021FD0032803D001280AD0F8
:103DF00000207047022914BF40234FF48063934290
:103E000009D301207047022940F2FF3308BF4FF465
:103E100080639342F6D24FF0E023D3F8F03DDB0706
:103E2000E6D500BE00207047022902D0402AE8D91A
:103E3000F1E7B2F5007FE4D0EDE700BF0A4491421C
:103E400026D291F801C0BCF1050F05D091F800C051
:103E500061448A42F5D8704700B591F802C00CF071
:103E60007F0E00EB4E0E4FEADC1C0EF80C3091F882
:103E700000C061448A4209D991F801C0BCF1050F24
:103E8000EBD091F800C061448A42F5D85DF804FB9C
:103E9000704700BF2DE9F0418E4682B0009390F844
:103EA00000C0089EBDF824706EF3000C0446154651
:103EB000012331463A4600F808CBBDF82C8000F0CB
:103EC000EBF806B13FB901200A9BA4F802806360B9
:103ED00002B0BDE8F08104F11C063046FCF73EFF5D
:103EE0000DB135460026C4E90556ECE701207047C0
:103EF000F8B50746084640F2FF13154610F8082BA0
:103F00000C4612F0020F0CBF3F261E4600F0F4F8DC
:103F100028B925B12E4202D12378DA0701D5002035
:103F2000F8BD38466178FFF79FF90028F7D023786D
:103F300013F0010307D04FF0E023D3F8F03DDB0787
:103F4000EDD500BEEBE71A4638466178FFF7B0F9C9
:103F50000028F0D0F8BD00BF70B501F10805064695
:103F600028460C4600F0C8F810B12378D80701D5D0
:103F7000002070BD30466178FFF776F90028F7D051
:103F800028466288616800F02DF92378054648B11B
:103F9000D9070ED54FF0E023D3F8F03DDA07E7D587
:103FA00000BEE5E7DB07E3D430466178FFF76EF942
:103FB000DEE70346626830466178FFF779F900284A
:103FC000E8D0284670BD00BF8A892DE9F0410B7802
:103FD0000C4605468AB9DF0725D44978FFF744F92E
:103FE00008B322786388D6073FD54FF0E023D3F893
:103FF000F03DDA0717D500BE15E003F0020301F12A
:104000000808002B40460CBF40274FF400774FF6BE
:10401000C07618BF4FF47E4600F088F8874202D879
:104020002378D80702D50020BDE8F08128466178C2
:10403000FFF71AF90028F6D0404600F077F88742DB
:104040001FD823786288D907CFD43040904228BF48
:10405000104661780646E0B1626833462846FFF7AD
:1040600027F90028C1D03046DEE761783BB16268AD
:104070002846FFF71DF90028B7D06088D4E71A4614
:10408000F6E72378DB07CED428466178FFF7FEF801
:10409000C9E70246E1E700BF2DE9F041B2F5004F64
:1040A0009DF8188024D80446C06817460E461D4661
:1040B00018B14FF0FF3100F087FB206918B14FF0C5
:1040C000FF3100F081FB0022C5F30E03E06843EAF4
:1040D000C83362812660A780E380228108B100F0A6
:1040E0007BFB206908B100F077FB0120BDE8F0817F
:1040F0000020BDE8F08100BF038942899BB292B2E3
:104100008088934236BFC2EB40029B1A9B189BB239
:10411000984228BF184670470289438990B29BB2E3
:10412000C01AB0FA80F04009704700BF0389428985
:104130009BB2808892B2934236BFC2EB40029B1A78
:104140009B189BB2984286BFC01A80B2002070476D
:1041500038B5044600690D4618B14FF0FF3100F044
:1041600033FB2189638989B29BB2A288994236BF09
:10417000C3EB4200C81A401880B250B3824209D241
:1041800091422CBF891A89188BB29A42638103D855
:104190009B1A9BB29A42FBD9E2882168C2F30E02B5
:1041A00002FB0311284600F011FA6189012589B24A
:1041B0004B1C9BB29942A2880ED9002302FA05F14A
:1041C0005B1A9BB22069638108B100F005FB2846A9
:1041D00038BD054663899BB2B3EB420F4FEA4201FB
:1041E000F0DBEDE72DE9F047064600698846914689
:1041F00018B14FF0FF3100F0E7FA338974899BB2B0
:10420000A4B2B588A34236BFC4EB45071F1BFF18F5
:10421000BFB2002F4AD0BD4240D3B94528BFB946EE
:10422000A5421FFA89F703D8641BA4B2A542FBD9A3
:10423000B6F806A02B1B31689BB2CAF30E029F4250
:10424000924602FB041123D913FB02F31FFA83F9F0
:104250004A4640467D1B00F0B9F9621912FB0AF28A
:10426000316808EB090092B200F0B0F97289B588A4
:1042700092B2D3199BB29A421AD96A009B1A9BB286
:104280003069738108B100F0A7FA3846BDE8F087BD
:10429000404607FB02F200F099F9E7E7AB422CBF7A
:1042A0005B1B5B199CB22F467481B6E773899BB286
:1042B000B3EB450F4FEA4502E2DBDFE7F8B5044612
:1042C000C0680E4618B14FF0FF3100F07DFA258925
:1042D000238961899BB289B2A2888B4236BFC1EB28
:1042E00042015B1A5B189BB29A42ADB208D8E779DB
:1042F000FF0905D1E06808B100F06EFA3846F8BD54
:10430000954219D32B469B1A9BB29342FBD2E2886B
:104310002068C2F30E0202FB0300314600F056F99A
:104320006B1C9BB29D42A28812D9002351005B1ADC
:104330009BB201272381DDE7E2882068C2F30E02E9
:1043400005FB0200314600F041F90135A288ABB20D
:10435000B3EB420F4FEA4201EBDBE8E72DE9F04F08
:10436000164683B0002A4CD00546C068884618B16E
:104370004FF0FF3100F028FAEA792F896989D209D4
:10438000AB88BFB289B240D18F4236BFC1EB430187
:10439000791AC91989B2994241D2591A89B28E4201
:1043A00028BF0E46B5F806A007EB0609A6EB030BDF
:1043B000CAF30E0A1FFA89F91FFA8BFB9F423C468B
:1043C00003D3E41AA4B29C42FBD21B1B28689BB205
:1043D000B3420AFB04004BD341460AFB06F200F04D
:1043E000F5F8AA884F454FEA420302D8B9EB420FCD
:1043F00003DBA9EB03031FFA83F9E868A5F808902B
:1044000088B9304603B0BDE8F08FB5F806A09E42EB
:10441000CAF30E0A0DD3002B3FD11E4600E0002642
:10442000E8680028EDD000F0D7F9304603B0BDE8C9
:10443000F08F8F4236BFC1EB43027A1AD21992B283
:1044400058003244A6EB030B82421FFA8BFB0ADBB7
:1044500001EB03091FFA89F9A9EB0607BFB2B942BC
:1044600018D9381A87B206EB07091FFA89F9A5E7A8
:1044700013FB0AF35C4414FB0AF49AB2414601921E
:1044800000F0A4F8019A286808EB0201A2B200F03B
:104490009DF8A6E7B84291DCE3E7F61A01EB0309C1
:1044A0000AFB06880F461E464FF0000B1FFA89F9DB
:1044B00084E700BF10B50446C06818B14FF0FF3163
:1044C00000F082F9206918B14FF0FF3100F07CF95B
:1044D0000023E0686381238108B100F07DF9206941
:1044E00008B100F079F9012010BD00BF38B50446CD
:1044F000C0680D4618B14FF0FF3100F065F9206932
:1045000018B14FF0FF3100F05FF9E379E06865F32F
:10451000C713E37108B100F05FF9206908B100F03A
:104520005BF9012038BD00BF70B5860747D0541E27
:10453000002A3ED0CAB2034601E0013C39D303F859
:10454000012B9D07F9D1032C2CD9CDB20F2C05EBF3
:10455000052505EB054535D9A4F1100C03F1100E26
:104560001A462CF00F064FEA1C1CB644C2E900554F
:10457000C2E9025510327245F8D10CF1010214F073
:104580000C0F04F00F0C03EB021213D0ACF1040378
:1045900023F003030433134442F8045B9342FBD13A
:1045A0000CF003042CB1C9B21C4403F8011BA34254
:1045B000FBD170BD64461346002CF4D1F9E70346E5
:1045C0001446C0E71A46A446E0E700BF844641EA25
:1045D000000313F0030349D1403A23D30B6803606F
:1045E0004B6843608B688360CB68C3600B69036171
:1045F0004B6943618B698361CB69C3610B6A036259
:104600004B6A43628B6A8362CB6AC3620B6B036340
:104610004B6B43638B6B8363CB6BC3634030403125
:10462000403ADBD230320BD30B6803604B684360F7
:104630008B688360CB68C36010301031103AF3D2BE
:104640000C3205D351F8043B40F8043B043AF9D24C
:10465000043208D0D2071CBF11F8013B00F8013B1F
:1046600001D30B8803806046704700BF082A13D32C
:104670008B07B1D010F00303AED0C3F10403D21AFC
:10468000DB071CBF11F8013B00F8013BA4D331F854
:10469000023B20F8023B9FE7043AD9D3013A11F8D4
:1046A000013B00F8013BF9D20B7803704B78437063
:1046B0008B78837060467047002301461A4618467F
:1046C00000F042B820F0030110F00300C0F1000038
:1046D00051F8043B00F1040C4FEACC0C6FF00002DF
:1046E0001CBF22FA0CF213434FF0010C4CEA0C2CC5
:1046F0004CEA0C4CA3EB0C0222EA030212EACC12A5
:1047000004BF51F8043B0430F4D0C2F1000102EAC6
:104710000102B2FA82F2C2F11F0200EBD20070472E
:1047200038B5074D074C2C1BA41005D0013C55F89B
:10473000043D9847002CF9D1BDE8384000F040B85E
:104740005C4800105C48001070B4164D2C681CB317
:1047500065681F2D23DC38B96B1C002002356360AF
:1047600044F8251070BC704704EB850C0228CCF887
:1047700088204FF00102D4F8886102FA05F246EA77
:104780000206C4F88861CCF80831E5D1D4F88C3140
:104790001343C4F88C31DFE7034C2C60D8E74FF0AB
:1047A000FF30DFE7A412002014110020024B13B1E8
:1047B0000248FFF781BF704700000000214700104A
:1047C000F8B500BF000000005FF800F03D020020D7
:1047D0005FF800F00D0B00205FF800F0750200207C
:1047E0005FF800F06D0A00205FF800F0B1020020D1
:1047F0005FF800F0C90A00205FF800F0D101002046
:104800005FF800F0950A00205FF800F01101002029
:10481000AD1900102119001055190010411A00108F
:104820008D190010A5180010D5190010911800104E
:10483000110D0010D9190010D1100010F11800103E
:10484000C119001071190010F106001019070010AD
:0C485000AD470010A1230010550200101D
:10485C0050524553534544005374617274696E67EA
:10486C002E2E2E000A2A2A2A2050414E4943202A55
:10487C002A2A0A000A0000004E6F207370696E6CC1
:10488C006F636B732061726520617661696C616224
:10489C006C6500004E6F2075736572204952517320
:1048AC002061726520617661696C61626C650000E3
:1048BC00486172647761726520616C61726D20254C
:1048CC006420616C726561647920636C61696D65EB
:1048DC006400000048617264206173736572740037
:1048EC0052656C6561736500626F6F74325F77320D
:1048FC003571303830000000322E322E300000007E
:10490C007069636F325F7700696E7465727275706F
:10491C007400000041707220203220323032360098
:10492C0055534220737464696E202F207374646F26
:10493C0075740000526173706265727279205069EF
:10494C00000000005069636F00000000426F61724C
:10495C0064204344430000005265736574000000FA
:10496C00556E68616E646C656420495251203078D4
:10497C0025780A0065702025303258207761732025
:10498C00616C726561647920617661696C61626CDD
:10499C006500000043616E277420636F6E74696E4E
:1049AC0075652078666572206F6E20696E61637420
:1049BC00697665206570202530325800060052500B
:1049CC00D3F07542EC48001006005250E182887F0B
:1049DC00F448001006005250ABB360530449001069
:1049EC0006005250BBFF3CB60C490010060052505A
:1049FC00861C030214490010060052505422A29D3A
:104A0C002049001005005250DE65F468A8590010CA
:104A1C000D0A0000000000001D1E00100000000028
:104A2C00211E00102D1E0010591E0010551E0010C6
:104A3C00000000000A00000000000306A6000800A9
:104A4C00020002009C001400030057494E555342CB
:104A5C0000000000000000000000800004000100C5
:104A6C002800440065007600690063006500490079
:104A7C006E007400650072006600610063006500E2
:104A8C00470055004900440000004E007B006200C6
:104A9C0063003700330039003800630031002D000B
:104AAC0037003300630064002D00340063006200A3
:104ABC0037002D0039003800620038002D00390015
:104ACC00310033006100380066006300610037007C
:104ADC006200660036007D0000000000050F21001A
:104AEC00011C100500DF60DDD88945C74C9CD265E0
:104AFC009D9E648A9F00000306A600010000000032
:104B0C000600525053B4F4A12C49001000000000D0
:104B1C0040490010504900105C1C002058490010FE
:104B2C006449001009025400030100807D080B0049
:104B3C000202020000090400000102020004052424
:104B4C0000200105240100010424020605240600AE
:104B5C00010705810308001009040100020A000086
:104B6C000007050202400000070582024000000910
:104B7C0004020000FF00010512011002EF020140C7
:104B8C008A2E090000010102030100000000000050
:104B9C0065370010D5370010013800104D38001063
:104BAC0009390010C9390010000000000000000095
:104BBC00C53A0010213B00103D3B0010613B00103A
:0C4BCC00B11E0010653C0010000000004D
:084BD800F4F9FF7F0100000069
:104BE000C8490010D4490010E0490010EC490010F9
:104BF000F8490010044A0010104A00100C4B001035
:104C0000034600B50268EFF3108C72B6D2E8CFEF1E
:104C10000120BEF1000FF9D1C2E84E0FBEF1000F26
:104C2000F4D1BFF35F8F93F90420002A0ADB01B1AE
:104C30000A60002000221B68C3E88F2F8CF31088C5
:104C40005DF804FB4FF05042126801201A71F1E741
:104C50004FF050412DE9F0410027044616461D460D
:104C6000D1F8008009E02368C3E88F7F8CF31088B7
:104C70003046294600F028FEF0B92168EFF3108C89
:104C800072B6D1E8CF2F0123002AFAD1C1E8423F02
:104C9000002AF6D1BFF35F8F94F904E0BEF1000F54
:104CA000E1DA0023226884F80480C2E88F3F8CF3A5
:104CB00010880120BDE8F0810020BDE8F08100BF30
:104CC00030B501460468EFF3108C72B6D4E8CFEF2C
:104CD0000125BEF1000FF9D1C4E84E5FBEF1000F0F
:104CE000F4D1BFF35F8F90F90440002C11DB002159
:104CF0000568C5E88F1F8CF310884FF0504C9CF965
:104D000000C0A44501D1084630BDBDE83040FFF7E2
:104D10009FBF4FF05040006800230A680871C2E846
:104D20008F3F8CF31088012030BD00BF70B5054661
:104D30000C4600F0D1FD02460B464FF47A704FF05E
:104D4000FF3E6FF0004CE4FB002396457CEB030133
:104D500038BF72462846BDE8704038BF6346FFF74B
:104D600077BF00BF0368EFF3108272B6D3E8CFCFEE
:104D70000121BCF1000FF9D1C3E84C1FBCF1000FB9
:104D8000F4D1BFF35F8F4FF0FF0C0023016880F870
:104D900004C0C1E88F3F82F3108840BF704700BF56
:104DA000002108B5134B4FF4707299601248D96016
:104DB000196159619961D961196259629962D9621F
:104DC000196359639963D963196459649964D964FF
:104DD000196559659965D965196659669966D966DF
:104DE000196759679967D96700F07EFD034B044A3C
:104DF0001A6008BD000010504C180020141C002040
:104E0000800110502DE9F04F204B85B09E6D0EB300
:104E1000002401251E4F01E0202C1BD006EA0503CB
:104E2000621C2146AA46D4B26D00002BF4D00223A6
:104E300004F001084FEA510913FB098B154B07EBEE
:104E40004B1B5846C3F858A000F00AFC28B936EAB4
:104E50000A06E1D105B0BDE8F08F4FF4E062ADF88D
:104E60000420002208EB490307EB43138DF80920C7
:104E70009A78DB8A01A801218DF80820039300F0BD
:104E80000DFC584600F092FBE1E700BF0000115016
:104E90000C18002000301150F0B5B24B85B0D3F89B
:104EA000985015F4003674D0AF4BB04C996A94F812
:104EB0003B30AF4A022B116000F0F980002694F8D5
:104EC0007B30022B00F0D48194F8BB30022B00F031
:104ED000C58194F8FB30022B00F0B68194F83B3189
:104EE000022B00F0A68194F87B31022B00F0968112
:104EF00094F8BB31022B00F0868194F8FB31022B31
:104F000000F0768194F83B32022B00F0658194F832
:104F10007B32022B00F0548194F8BB32022B00F05C
:104F2000438194F8FB32022B00F0328194F83B333A
:104F3000022B00F00A8194F87B33022B00F0C98029
:104F400094F8BB33022B00F0EC8094F8FB33022B77
:104F500000F0D6803EB9874B1B7823B94FF400325E
:104F6000854BC3F890204FF440727E4B01219B6C1F
:104F700001A8C3F30A03ADF80420029300F08EFBEE
:104F8000EA064FF400367D4C07D5FFF73BFF264677
:104F900003E0EA064FF01004F7D4EB0332D5734C6C
:104FA00046F48036A37E9BB10221754B6D4A19668B
:104FB000536E9F07FCD54FF4405200216B4800F020
:104FC000FBFA6A4800F0F2FA02226B4B5A661A6644
:104FD000012394F83A20E370FAB901234FF4C06139
:104FE000684A84F82330ADF8041092E8030004AA5C
:104FF00002E90300194601A800F050FB4FF400320B
:105000005D4B1A65E9041DD46A0432D42B043FD4E5
:10501000AE4240F0A58105B0F0BD594A1366A2F535
:105020000052536ED807FCD54FF440520021564829
:1050300000F0C2FA544800F0B9FA01224E4B5A6609
:105040001A66CAE70024474B46F480561C60FFF7F7
:10505000A7FE4FF48073012101A8ADF804308DF84C
:10506000084000F01BFB4FF40022434B1A656A0412
:10507000CCD54FF48063012101A8ADF8043000F0D5
:105080000DFB10223C4B46F480461A652B04BFD51D
:105090004FF4A063012101A8ADF8043000F0FEFA3E
:1050A0004FF40062344B46F400461A65B0E794F8BA
:1050B0003A60002E3FF403AF94F83C30002B3FF4ED
:1050C000FEAE002304F1200084F83C3000F096FA94
:1050D000F5E694F87A73002F3FF432AF94F87C33FE
:1050E000002B40F0368194F8BB33022B23D194F887
:1050F000BA33DBB994F8FB33022B7FF434AF3E466E
:1051000094F8FA33002B3FF425AF94F8FC33002BCE
:105110003FF429AF00231D4884F8FC3300F06EFAF9
:1051200021E794F8BA33002B3FF40FAF94F8BC3367
:10513000002B40F0A78094F8FB33022B7FF413AFD1
:1051400094F8FA33002BE0D10DE794F83A73002F6E
:105150003FF4F1AE94F83C33002B40F0F2803E4631
:10516000E9E600BF0000115000000B400C180020C1
:10517000041800206E1C00200030115010000200A6
:1051800000201150000010502C180020EC1B0020B3
:1051900094F8FA72002F3FF4C9AE94F8FC32002B59
:1051A00040F0C7803E46C1E694F8BA72002F3FF443
:1051B000B8AE94F8BC32002B40F0B3803E46B0E667
:1051C00094F87A72002F3FF4A7AE94F87C32002B4B
:1051D00040F09F803E469FE694F83A72002F3FF4DD
:1051E00096AE94F83C32002B40F08B803E468EE623
:1051F00094F8FA71002F3FF485AE94F8FC31002B3F
:1052000077D13E467EE694F8BA71002F3FF475AE32
:1052100094F8BC31002B64D13E466EE694F87A7166
:10522000002F3FF465AE94F87C31002B51D13E46FF
:105230005EE694F83A71002F3FF455AE94F83C3195
:10524000002B3ED13E464EE694F8FA70002F3FF414
:1052500045AE94F8FC3063BB3E463FE694F8BA7026
:10526000002F3FF436AE94F8BC30D3B93E4630E65A
:1052700094F87A70002F3FF427AE94F87C3043B94D
:105280003E4621E60023394884F8BC3300F0B6F9E5
:1052900051E70023364884F87C303E4600F0AEF9F2
:1052A00012E60023334884F8BC303E4600F0A6F9ED
:1052B0000FE60023304884F8FC303E4600F09EF9AB
:1052C0000CE600232D4884F83C313E4600F096F968
:1052D00009E600232A4884F87C313E4600F08EF926
:1052E00006E60023274884F8BC313E4600F086F9E4
:1052F00003E60023244884F8FC313E4600F07EF9A2
:1053000000E60023214884F83C323E4600F076F95E
:10531000FDE500231E4884F87C323E4600F06EF91D
:10532000FAE500231B4884F8BC323E4600F066F9DB
:10533000F7E50023184884F8FC323E4600F05EF999
:10534000F4E50023154884F83C333E4600F056F956
:10535000F1E50023124884F87C3300F04FF9C2E6EF
:10536000104886EA050100F0B3FA00BFAC1B00202C
:105370006C180020AC180020EC1800202C1900201C
:105380006C190020AC190020EC1900202C1A002008
:105390006C1A0020AC1A0020EC1A00202C1B0020F4
:1053A0006C1B00206C4900102DE9F043828A048BAD
:1053B00003469442C07828BF1446051E18BF012535
:1053C00080F00100121B5E78D87092B244F48060C5
:1053D0009A8240EA453006BBDD6804F1FF3805EBF0
:1053E000811C1D69ACB1B8F1050F05F1010203D9AB
:1053F000ACEB0207022F17D80CF1FF3C254400E06C
:10540000013212F8016CAA420CF8016FF8D11D6943
:105410009A8A25441D6140F400400AB940F4804056
:1054200001B10004BDE8F0832F46E6463246261F50
:10543000B608013657F8049B013296424EF8049B99
:10544000F8D8B4EB860FA8EB860205EB860E0CEBC2
:105450008607DCD015F826500CF82650002AD6D046
:105460009EF80150012A7D70D1D09EF80220BA70BA
:105470001D699A8ACDE700BF83680246186801B1AA
:10548000000C5378C0F3090013B3F0B5D2E903540C
:105490008F0105EB8113461E78B1052E04D9013723
:1054A0003D44651B022D1CD8611E1D1813F8014BCD
:1054B0009D4201F8014FF9D11469D38A0444034491
:1054C000D382138B1461834284BF00239382F0BD87
:1054D000D38A0344D382138B834284BF00239382F5
:1054E00070479E4625460021A0F1040C4FEA9C0C13
:1054F0000CF1010C5EF8047B0131614545F8047B39
:10550000F8D3B0EB8C0FA6EB8C0603EB8C0504EB09
:105510008C01D1D013F82C3004F82C30002ECBD0D5
:105520006B78012E4B70C7D0AB788B701469C4E7D1
:1055300010B50446836800211B68FFF79DFF636870
:105540001B685B0002D5238B834200D010BD204630
:10555000BDE810400121FFF78FBF00BF084B1B6C57
:1055600013F0020302D18278D20901D100207047E2
:10557000C07EA0F10200B0FA80F04009704700BF81
:105580000000115008B5FFF7E9FF50B1054A064B7E
:10559000906A1B68A0F54870C01AC6288CBF00200E
:1055A000012008BD00000B40041800200023C0E9C2
:1055B00004338376704700BF10B5836809B11C6857
:1055C000214082B1114352050DD51A6854050CD4FF
:1055D000084A21F480641C60126C920703D40C23E7
:1055E000033BFDD28368196010BD8178024800F04A
:1055F0006FF900BF000011508049001030B54368BA
:10560000002183B004461D68FFF7CEFE134B40F423
:1056100080521B6C13F0020FA3780ED05B060ED0E5
:1056200025F0A04545F000550021204663681D6027
:1056300003B0BDE83040FFF7BFBFDB09F0D0A38A5D
:10564000002BEDD0012120460192FFF7ADFE019A1B
:1056500025F00055024345F0A045E5E70000115054
:1056600038B5857E044695B1FFF762FFA38A0BB972
:10567000284638BD2046FFF785FF20B10123237758
:105680000025284638BD2046FFF7B8FFF8E78178A7
:10569000014800F01DF900BFA04900102DE9F043BA
:1056A00043788146023B0D4685B0042B13D8DFE8D2
:1056B00003F0034A6A73440000217B4B1A7822F0FE
:1056C00001021A701A7822F002021A7059701A78C0
:1056D00061F382021A70754B1C686369EFF31082E4
:1056E00072B6D3E8CF0F01210028FAD1C3E8401FDA
:1056F0000028F6D1BFF35F8FA2614946204600F033
:10570000EFF800236269C2E88F3FA36983F3108832
:1057100048B94FF0E023D3F8F03DDB070AD500BECF
:1057200005B0BDE8F0832A4699F8011099F8000009
:1057300000F0C6F805B0BDE8F0835D4A1378013388
:10574000DBB21370C7E700245A4E23463178DFF8E6
:105750006C81594F11E03B6813EB441307D0DB69B0
:105760002BB1D9F8041099F800009847317801342A
:10577000E4B24A1CA242234617DBA142EBD85B1AD3
:1057800008EB4313EBE7484B1A78D607D2D51A78C3
:1057900042F004021A709EE7434B1A78D407C9D529
:1057A0001A7822F004021A7095E73F4C23785807C4
:1057B0003AD4E378DA07BDD5032300263B4A99F8AB
:1057C00000101468D9F804208DF804108DF8053005
:1057D0006369CDF80660CDF80A60ADF80E600292FC
:1057E000EFF3108272B6D3E8CF0F01210028FAD16F
:1057F000C3E8401F0028F6D1BFF35F8F2046A261A7
:1058000001A900F06DF86369C3E88F6FA36983F3A2
:10581000108800283FF47DAF2A469DF805109DF8BA
:10582000040000F04DF885E72378002723F00403F7
:10583000237005231D4A8DF80530166899F800205D
:10584000ADF80E708DF804207369CDF80670CDF8B0
:105850000A70EFF3108272B6D3E8CF0F012100284F
:10586000FAD1C3E8401F0028F6D1BFF35F8F30465E
:10587000B26101A900F034F87369C3E88F7FB3699E
:1058800083F3108838B94FF0E023D3F8F03DD907FF
:105890008FD500BE8DE72A469DF805109DF80400BF
:1058A00000F00EF885E700BFB013002008140020B8
:1058B0006F1C00206D1C0020A8120020984B0010C7
:1058C0005FF800F0CD2800105FF800F0E914001038
:1058D0005FF800F0950500105FF800F0D915001092
:1058E0005FF800F0BD4200105FF800F0294500109D
:1058F0001000000000000000000001000000000097
:105900000000000000000200000000000000000095
:105910000000030000000000000000000000FF0085
:105920000000000001B5486801318E46004770460E
:1059300009380149884701BD210C00100000000012
:105940000000000000000000000000000000000057
:10595000700F00206D20001019200010911F001002
:10596000011F001000000000000100000C140020C6
:1059700010000C000000000000000000000000000B
:105980000000000000000000FF0000000000000018
:045990000000000013
:10599400D3DEFFFFFE010000FF010000A4A7FFFF0C
:0459A400793512AB94
:040000051000014D99
:00000001FF
